{
  "contractName": "GetLastPrice",
  "abi": [
    {
      "inputs": [
        {
          "internalType": "address",
          "name": "priceFeedAddress",
          "type": "address"
        }
      ],
      "name": "getLatestPrice",
      "outputs": [
        {
          "internalType": "int256",
          "name": "",
          "type": "int256"
        }
      ],
      "stateMutability": "view",
      "type": "function",
      "constant": true
    }
  ],
  "bytecode": "0x608060405234801561001057600080fd5b5061030e806100206000396000f3fe608060405234801561001057600080fd5b506004361061002b5760003560e01c806316345f1814610030575b600080fd5b61004a60048036038101906100459190610158565b610060565b604051610057919061019e565b60405180910390f35b60008082905060008060008060008573ffffffffffffffffffffffffffffffffffffffff1663feaf968c6040518163ffffffff1660e01b815260040160a060405180830381865afa1580156100b9573d6000803e3d6000fd5b505050506040513d601f19601f820116820180604052508101906100dd919061025d565b94509450945094509450839650505050505050919050565b600080fd5b600073ffffffffffffffffffffffffffffffffffffffff82169050919050565b6000610125826100fa565b9050919050565b6101358161011a565b811461014057600080fd5b50565b6000813590506101528161012c565b92915050565b60006020828403121561016e5761016d6100f5565b5b600061017c84828501610143565b91505092915050565b6000819050919050565b61019881610185565b82525050565b60006020820190506101b3600083018461018f565b92915050565b600069ffffffffffffffffffff82169050919050565b6101d8816101b9565b81146101e357600080fd5b50565b6000815190506101f5816101cf565b92915050565b61020481610185565b811461020f57600080fd5b50565b600081519050610221816101fb565b92915050565b6000819050919050565b61023a81610227565b811461024557600080fd5b50565b60008151905061025781610231565b92915050565b600080600080600060a08688031215610279576102786100f5565b5b6000610287888289016101e6565b955050602061029888828901610212565b94505060406102a988828901610248565b93505060606102ba88828901610248565b92505060806102cb888289016101e6565b915050929550929590935056fea2646970667358221220809bfc85b9a65a7c3f020e2bd413ddfc1211f3cbed51663677fdfcda4bfbf79664736f6c634300080a0033",
  "immutableReferences": {},
  "source": "// SPDX-License-Identifier: MIT\n//pragma solidity 0.8.9;\npragma solidity 0.8.10;\n\nimport \"@chainlink/contracts/src/v0.8/interfaces/AggregatorV3Interface.sol\";\n\ncontract GetLastPrice {\n    /**\n     * Returns the latest price\n     */\n    function getLatestPrice(address priceFeedAddress) public view returns (int) {\n        AggregatorV3Interface priceFeed = AggregatorV3Interface(priceFeedAddress);\n        (\n            uint80 roundID, \n            int price,\n            uint startedAt,\n            uint timeStamp,\n            uint80 answeredInRound\n        ) = priceFeed.latestRoundData();\n        return price;\n    }\n}",
  "sourcePath": "/home/ldn21/dapp-staking/contracts/GetLastPrice.sol",
  "compiler": {
    "name": "solc",
    "version": "0.8.10+commit.fc410830.Emscripten.clang"
  },
  "schemaVersion": "3.4.3",
  "updatedAt": "2021-12-05T02:32:13.667Z",
  "networkType": "ethereum",
  "devdoc": {
    "kind": "dev",
    "methods": {},
    "version": 1
  },
  "userdoc": {
    "kind": "user",
    "methods": {
      "getLatestPrice(address)": {
        "notice": "Returns the latest price"
      }
    },
    "version": 1
  }
}