{
  "contractName": "OBdefiStaking",
  "abi": [
    {
      "inputs": [],
      "name": "STAKING_PERIODICITY",
      "outputs": [
        {
          "internalType": "uint256",
          "name": "",
          "type": "uint256"
        }
      ],
      "stateMutability": "view",
      "type": "function",
      "constant": true
    },
    {
      "inputs": [],
      "name": "STAKING_RATE",
      "outputs": [
        {
          "internalType": "uint256",
          "name": "",
          "type": "uint256"
        }
      ],
      "stateMutability": "view",
      "type": "function",
      "constant": true
    },
    {
      "inputs": [
        {
          "internalType": "address",
          "name": "",
          "type": "address"
        }
      ],
      "name": "tokenMap",
      "outputs": [
        {
          "internalType": "uint256",
          "name": "",
          "type": "uint256"
        }
      ],
      "stateMutability": "view",
      "type": "function",
      "constant": true
    },
    {
      "inputs": [
        {
          "internalType": "uint256",
          "name": "",
          "type": "uint256"
        }
      ],
      "name": "tokens",
      "outputs": [
        {
          "internalType": "address",
          "name": "tokenAddress",
          "type": "address"
        },
        {
          "internalType": "uint256",
          "name": "stakedAmount",
          "type": "uint256"
        },
        {
          "internalType": "uint256",
          "name": "previousStakedAmountPerSecond",
          "type": "uint256"
        },
        {
          "internalType": "uint256",
          "name": "lastTransactionDate",
          "type": "uint256"
        }
      ],
      "stateMutability": "view",
      "type": "function",
      "constant": true
    },
    {
      "inputs": [],
      "name": "GetStakingRate",
      "outputs": [
        {
          "internalType": "uint256",
          "name": "",
          "type": "uint256"
        }
      ],
      "stateMutability": "view",
      "type": "function",
      "constant": true
    },
    {
      "inputs": [],
      "name": "GetStakingPeriodicity",
      "outputs": [
        {
          "internalType": "uint256",
          "name": "",
          "type": "uint256"
        }
      ],
      "stateMutability": "view",
      "type": "function",
      "constant": true
    },
    {
      "inputs": [],
      "name": "GetStakedTokens",
      "outputs": [
        {
          "components": [
            {
              "internalType": "address",
              "name": "tokenAddress",
              "type": "address"
            },
            {
              "internalType": "uint256",
              "name": "stakedAmount",
              "type": "uint256"
            },
            {
              "internalType": "uint256",
              "name": "previousStakedAmountPerSecond",
              "type": "uint256"
            },
            {
              "internalType": "uint256",
              "name": "lastTransactionDate",
              "type": "uint256"
            }
          ],
          "internalType": "struct OBdefiStaking.Token[]",
          "name": "",
          "type": "tuple[]"
        }
      ],
      "stateMutability": "view",
      "type": "function",
      "constant": true
    },
    {
      "inputs": [
        {
          "internalType": "address",
          "name": "tokenAddress",
          "type": "address"
        },
        {
          "internalType": "uint256",
          "name": "amount",
          "type": "uint256"
        }
      ],
      "name": "stakeToken",
      "outputs": [],
      "stateMutability": "nonpayable",
      "type": "function"
    },
    {
      "inputs": [
        {
          "internalType": "address",
          "name": "tokenAddress",
          "type": "address"
        },
        {
          "internalType": "uint256",
          "name": "amount",
          "type": "uint256"
        }
      ],
      "name": "withdrawToken",
      "outputs": [],
      "stateMutability": "nonpayable",
      "type": "function"
    },
    {
      "inputs": [
        {
          "internalType": "address",
          "name": "tokenAddress",
          "type": "address"
        }
      ],
      "name": "getTokenStakedAmount",
      "outputs": [
        {
          "internalType": "uint256",
          "name": "",
          "type": "uint256"
        }
      ],
      "stateMutability": "view",
      "type": "function",
      "constant": true
    },
    {
      "inputs": [
        {
          "internalType": "address",
          "name": "tokenAddress",
          "type": "address"
        }
      ],
      "name": "getTokenReward",
      "outputs": [
        {
          "internalType": "uint256",
          "name": "",
          "type": "uint256"
        }
      ],
      "stateMutability": "view",
      "type": "function",
      "constant": true
    },
    {
      "inputs": [
        {
          "internalType": "address",
          "name": "tokenAddress",
          "type": "address"
        }
      ],
      "name": "getTokenPrice",
      "outputs": [
        {
          "internalType": "int256",
          "name": "",
          "type": "int256"
        }
      ],
      "stateMutability": "view",
      "type": "function",
      "constant": true
    },
    {
      "inputs": [],
      "name": "getAllTokensRewardsInETH",
      "outputs": [
        {
          "internalType": "uint256",
          "name": "",
          "type": "uint256"
        }
      ],
      "stateMutability": "view",
      "type": "function",
      "constant": true
    }
  ],
  "bytecode": "0x60806040526040516100109061007f565b604051809103906000f08015801561002c573d6000803e3d6000fd5b50600260006101000a81548173ffffffffffffffffffffffffffffffffffffffff021916908373ffffffffffffffffffffffffffffffffffffffff16021790555034801561007957600080fd5b5061008c565b61032e80611c1e83390190565b611b838061009b6000396000f3fe608060405234801561001057600080fd5b50600436106100ce5760003560e01c806394e81ce91161008c578063d02641a011610066578063d02641a014610218578063ded5244914610248578063f739ed9e14610266578063fea99c4b14610282576100ce565b806394e81ce9146101c05780639e281a98146101de578063cadf195e146101fa576100ce565b80624aca6e146100d3578063225b500d146101035780634f64b2be1461012157806361f4a977146101545780638388a69e146101725780638cc3534814610190575b600080fd5b6100ed60048036038101906100e89190611135565b6102b2565b6040516100fa919061117b565b60405180910390f35b61010b6102ca565b604051610118919061117b565b60405180910390f35b61013b600480360381019061013691906111c2565b6103ea565b60405161014b94939291906111fe565b60405180910390f35b61015c61044a565b6040516101699190611365565b60405180910390f35b61017a61051d565b604051610187919061117b565b60405180910390f35b6101aa60048036038101906101a59190611135565b610528565b6040516101b7919061117b565b60405180910390f35b6101c86105d9565b6040516101d5919061117b565b60405180910390f35b6101f860048036038101906101f39190611387565b6105de565b005b610202610877565b60405161020f919061117b565b60405180910390f35b610232600480360381019061022d9190611135565b610880565b60405161023f91906113e0565b60405180910390f35b610250610aa5565b60405161025d919061117b565b60405180910390f35b610280600480360381019061027b9190611387565b610aac565b005b61029c60048036038101906102979190611135565b610ddf565b6040516102a9919061117b565b60405180910390f35b60016020528060005260406000206000915090505481565b60008060005b6000805490508110156103e25760008082815481106102f2576102f16113fb565b5b9060005260206000209060040201905061032f8160000160009054906101000a900473ffffffffffffffffffffffffffffffffffffffff16610880565b6103b7826040518060800160405290816000820160009054906101000a900473ffffffffffffffffffffffffffffffffffffffff1673ffffffffffffffffffffffffffffffffffffffff1673ffffffffffffffffffffffffffffffffffffffff1681526020016001820154815260200160028201548152602001600382015481525050610f13565b6103c19190611459565b836103cc91906114b3565b92505080806103da90611509565b9150506102d0565b508091505090565b600081815481106103fa57600080fd5b90600052602060002090600402016000915090508060000160009054906101000a900473ffffffffffffffffffffffffffffffffffffffff16908060010154908060020154908060030154905084565b60606000805480602002602001604051908101604052809291908181526020016000905b8282101561051457838290600052602060002090600402016040518060800160405290816000820160009054906101000a900473ffffffffffffffffffffffffffffffffffffffff1673ffffffffffffffffffffffffffffffffffffffff1673ffffffffffffffffffffffffffffffffffffffff16815260200160018201548152602001600282015481526020016003820154815250508152602001906001019061046e565b50505050905090565b600062015180905090565b60008060018060008573ffffffffffffffffffffffffffffffffffffffff1673ffffffffffffffffffffffffffffffffffffffff168152602001908152602001600020546105769190611552565b90507fffffffffffffffffffffffffffffffffffffffffffffffffffffffffffffffff8114156105aa5760009150506105d4565b600081815481106105be576105bd6113fb565b5b9060005260206000209060040201600101549150505b919050565b600681565b60008111610621576040517f08c379a000000000000000000000000000000000000000000000000000000000815260040161061890611643565b60405180910390fd5b600060018060008573ffffffffffffffffffffffffffffffffffffffff1673ffffffffffffffffffffffffffffffffffffffff1681526020019081526020016000205461066e9190611552565b90507fffffffffffffffffffffffffffffffffffffffffffffffffffffffffffffffff81136106d2576040517f08c379a00000000000000000000000000000000000000000000000000000000081526004016106c9906116d5565b60405180910390fd5b60008082815481106106e7576106e66113fb565b5b90600052602060002090600402019050828160010154101561073e576040517f08c379a000000000000000000000000000000000000000000000000000000000815260040161073590611741565b60405180910390fd5b6107c6816040518060800160405290816000820160009054906101000a900473ffffffffffffffffffffffffffffffffffffffff1673ffffffffffffffffffffffffffffffffffffffff1673ffffffffffffffffffffffffffffffffffffffff1681526020016001820154815260200160028201548152602001600382015481525050610f4b565b8160020181905550428160030181905550828160010160008282546107eb9190611761565b925050819055508373ffffffffffffffffffffffffffffffffffffffff1663a9059cbb33856040518363ffffffff1660e01b815260040161082d929190611795565b6020604051808303816000875af115801561084c573d6000803e3d6000fd5b505050506040513d601f19601f8201168201806040525081019061087091906117f6565b5050505050565b60006006905090565b60008173ffffffffffffffffffffffffffffffffffffffff166395d89b416040518163ffffffff1660e01b8152600401600060405180830381865afa9250505080156108ef57506040513d6000823e3d601f19601f820116820180604052508101906108ec919061198d565b60015b6108fc5760009050610aa0565b600061090782610f82565b9050600073ffffffffffffffffffffffffffffffffffffffff168173ffffffffffffffffffffffffffffffffffffffff1614156109f5576040518060400160405280600381526020017f4154310000000000000000000000000000000000000000000000000000000000815250805190602001208280519060200120141561099457600a92505050610aa0565b6040518060400160405280600381526020017f415432000000000000000000000000000000000000000000000000000000000081525080519060200120828051906020012014156109ea57601492505050610aa0565b600092505050610aa0565b600260009054906101000a900473ffffffffffffffffffffffffffffffffffffffff1673ffffffffffffffffffffffffffffffffffffffff166316345f18856040518263ffffffff1660e01b8152600401610a5091906119d6565b602060405180830381865afa925050508015610a8a57506040513d601f19601f82011682018060405250810190610a879190611a1d565b60015b610a9957600092505050610aa0565b8093505050505b919050565b6201518081565b60008111610aef576040517f08c379a0000000000000000000000000000000000000000000000000000000008152600401610ae690611a96565b60405180910390fd5b600060018060008573ffffffffffffffffffffffffffffffffffffffff1673ffffffffffffffffffffffffffffffffffffffff16815260200190815260200160002054610b3c9190611552565b90507fffffffffffffffffffffffffffffffffffffffffffffffffffffffffffffffff811415610c7e57600060405180608001604052808573ffffffffffffffffffffffffffffffffffffffff1681526020018481526020016000815260200142815250908060018154018082558091505060019003906000526020600020906004020160009091909190915060008201518160000160006101000a81548173ffffffffffffffffffffffffffffffffffffffff021916908373ffffffffffffffffffffffffffffffffffffffff1602179055506020820151816001015560408201518160020155606082015181600301555050600080549050600160008573ffffffffffffffffffffffffffffffffffffffff1673ffffffffffffffffffffffffffffffffffffffff16815260200190815260200160002081905550610d59565b6000808281548110610c9357610c926113fb565b5b90600052602060002090600402019050610d2b816040518060800160405290816000820160009054906101000a900473ffffffffffffffffffffffffffffffffffffffff1673ffffffffffffffffffffffffffffffffffffffff1673ffffffffffffffffffffffffffffffffffffffff1681526020016001820154815260200160028201548152602001600382015481525050610f4b565b816002018190555082816001016000828254610d4791906114b3565b92505081905550428160030181905550505b8273ffffffffffffffffffffffffffffffffffffffff166323b872dd3330856040518463ffffffff1660e01b8152600401610d9693929190611ab6565b6020604051808303816000875af1158015610db5573d6000803e3d6000fd5b505050506040513d601f19601f82011682018060405250810190610dd991906117f6565b50505050565b60008060018060008573ffffffffffffffffffffffffffffffffffffffff1673ffffffffffffffffffffffffffffffffffffffff16815260200190815260200160002054610e2d9190611552565b90507fffffffffffffffffffffffffffffffffffffffffffffffffffffffffffffffff811415610e61576000915050610f0e565b610f0a60008281548110610e7857610e776113fb565b5b90600052602060002090600402016040518060800160405290816000820160009054906101000a900473ffffffffffffffffffffffffffffffffffffffff1673ffffffffffffffffffffffffffffffffffffffff1673ffffffffffffffffffffffffffffffffffffffff1681526020016001820154815260200160028201548152602001600382015481525050610f13565b9150505b919050565b60006064620151806006610f2685610f4b565b610f309190611459565b610f3a9190611b1c565b610f449190611b1c565b9050919050565b60008160200151826060015142610f629190611761565b610f6c9190611459565b8260400151610f7b91906114b3565b9050919050565b60006040518060400160405280600381526020017f42544300000000000000000000000000000000000000000000000000000000008152508051906020012082805190602001201415610feb5773c751e86208f0f8af2d5cd0e29716ca7ad98b5ef590506110be565b6040518060400160405280600381526020017f44414900000000000000000000000000000000000000000000000000000000008152508051906020012082805190602001201415611052577374825dbc8bf76cc4e9494d0ecb210f676efa001d90506110be565b6040518060400160405280600481526020017f555344430000000000000000000000000000000000000000000000000000000081525080519060200120828051906020012014156110b95773dca36f27cbc4e38ae16c4e9f99d39b42337f6dcf90506110be565b600090505b919050565b6000604051905090565b600080fd5b600080fd5b600073ffffffffffffffffffffffffffffffffffffffff82169050919050565b6000611102826110d7565b9050919050565b611112816110f7565b811461111d57600080fd5b50565b60008135905061112f81611109565b92915050565b60006020828403121561114b5761114a6110cd565b5b600061115984828501611120565b91505092915050565b6000819050919050565b61117581611162565b82525050565b6000602082019050611190600083018461116c565b92915050565b61119f81611162565b81146111aa57600080fd5b50565b6000813590506111bc81611196565b92915050565b6000602082840312156111d8576111d76110cd565b5b60006111e6848285016111ad565b91505092915050565b6111f8816110f7565b82525050565b600060808201905061121360008301876111ef565b611220602083018661116c565b61122d604083018561116c565b61123a606083018461116c565b95945050505050565b600081519050919050565b600082825260208201905092915050565b6000819050602082019050919050565b611278816110f7565b82525050565b61128781611162565b82525050565b6080820160008201516112a3600085018261126f565b5060208201516112b6602085018261127e565b5060408201516112c9604085018261127e565b5060608201516112dc606085018261127e565b50505050565b60006112ee838361128d565b60808301905092915050565b6000602082019050919050565b600061131282611243565b61131c818561124e565b93506113278361125f565b8060005b8381101561135857815161133f88826112e2565b975061134a836112fa565b92505060018101905061132b565b5085935050505092915050565b6000602082019050818103600083015261137f8184611307565b905092915050565b6000806040838503121561139e5761139d6110cd565b5b60006113ac85828601611120565b92505060206113bd858286016111ad565b9150509250929050565b6000819050919050565b6113da816113c7565b82525050565b60006020820190506113f560008301846113d1565b92915050565b7f4e487b7100000000000000000000000000000000000000000000000000000000600052603260045260246000fd5b7f4e487b7100000000000000000000000000000000000000000000000000000000600052601160045260246000fd5b600061146482611162565b915061146f83611162565b9250817fffffffffffffffffffffffffffffffffffffffffffffffffffffffffffffffff04831182151516156114a8576114a761142a565b5b828202905092915050565b60006114be82611162565b91506114c983611162565b9250827fffffffffffffffffffffffffffffffffffffffffffffffffffffffffffffffff038211156114fe576114fd61142a565b5b828201905092915050565b600061151482611162565b91507fffffffffffffffffffffffffffffffffffffffffffffffffffffffffffffffff8214156115475761154661142a565b5b600182019050919050565b600061155d826113c7565b9150611568836113c7565b9250827f8000000000000000000000000000000000000000000000000000000000000000018212600084121516156115a3576115a261142a565b5b827f7fffffffffffffffffffffffffffffffffffffffffffffffffffffffffffffff0182136000841216156115db576115da61142a565b5b828203905092915050565b600082825260208201905092915050565b7f596f752063616e6e6f74207769746864726177203020746f6b656e0000000000600082015250565b600061162d601b836115e6565b9150611638826115f7565b602082019050919050565b6000602082019050818103600083015261165c81611620565b9050919050565b7f5365656d7320796f75206e65766572207374616b65642074686520676976656e60008201527f20746f6b656e206f6e207468697320636f6e7472616374000000000000000000602082015250565b60006116bf6037836115e6565b91506116ca82611663565b604082019050919050565b600060208201905081810360008301526116ee816116b2565b9050919050565b7f4e6f7420656e6f756768207374616b656420746f6b656e732e00000000000000600082015250565b600061172b6019836115e6565b9150611736826116f5565b602082019050919050565b6000602082019050818103600083015261175a8161171e565b9050919050565b600061176c82611162565b915061177783611162565b92508282101561178a5761178961142a565b5b828203905092915050565b60006040820190506117aa60008301856111ef565b6117b7602083018461116c565b9392505050565b60008115159050919050565b6117d3816117be565b81146117de57600080fd5b50565b6000815190506117f0816117ca565b92915050565b60006020828403121561180c5761180b6110cd565b5b600061181a848285016117e1565b91505092915050565b600080fd5b600080fd5b6000601f19601f8301169050919050565b7f4e487b7100000000000000000000000000000000000000000000000000000000600052604160045260246000fd5b6118768261182d565b810181811067ffffffffffffffff821117156118955761189461183e565b5b80604052505050565b60006118a86110c3565b90506118b4828261186d565b919050565b600067ffffffffffffffff8211156118d4576118d361183e565b5b6118dd8261182d565b9050602081019050919050565b60005b838110156119085780820151818401526020810190506118ed565b83811115611917576000848401525b50505050565b600061193061192b846118b9565b61189e565b90508281526020810184848401111561194c5761194b611828565b5b6119578482856118ea565b509392505050565b600082601f83011261197457611973611823565b5b815161198484826020860161191d565b91505092915050565b6000602082840312156119a3576119a26110cd565b5b600082015167ffffffffffffffff8111156119c1576119c06110d2565b5b6119cd8482850161195f565b91505092915050565b60006020820190506119eb60008301846111ef565b92915050565b6119fa816113c7565b8114611a0557600080fd5b50565b600081519050611a17816119f1565b92915050565b600060208284031215611a3357611a326110cd565b5b6000611a4184828501611a08565b91505092915050565b7f596f752063616e6e6f74207374616b65203020746f6b656e0000000000000000600082015250565b6000611a806018836115e6565b9150611a8b82611a4a565b602082019050919050565b60006020820190508181036000830152611aaf81611a73565b9050919050565b6000606082019050611acb60008301866111ef565b611ad860208301856111ef565b611ae5604083018461116c565b949350505050565b7f4e487b7100000000000000000000000000000000000000000000000000000000600052601260045260246000fd5b6000611b2782611162565b9150611b3283611162565b925082611b4257611b41611aed565b5b82820490509291505056fea26469706673582212205ff756f284686cf2e2b5b71ab7e8b3d0a1eb4f633629728c5c2f147fc4ea7a8e64736f6c634300080a0033608060405234801561001057600080fd5b5061030e806100206000396000f3fe608060405234801561001057600080fd5b506004361061002b5760003560e01c806316345f1814610030575b600080fd5b61004a60048036038101906100459190610158565b610060565b604051610057919061019e565b60405180910390f35b60008082905060008060008060008573ffffffffffffffffffffffffffffffffffffffff1663feaf968c6040518163ffffffff1660e01b815260040160a060405180830381865afa1580156100b9573d6000803e3d6000fd5b505050506040513d601f19601f820116820180604052508101906100dd919061025d565b94509450945094509450839650505050505050919050565b600080fd5b600073ffffffffffffffffffffffffffffffffffffffff82169050919050565b6000610125826100fa565b9050919050565b6101358161011a565b811461014057600080fd5b50565b6000813590506101528161012c565b92915050565b60006020828403121561016e5761016d6100f5565b5b600061017c84828501610143565b91505092915050565b6000819050919050565b61019881610185565b82525050565b60006020820190506101b3600083018461018f565b92915050565b600069ffffffffffffffffffff82169050919050565b6101d8816101b9565b81146101e357600080fd5b50565b6000815190506101f5816101cf565b92915050565b61020481610185565b811461020f57600080fd5b50565b600081519050610221816101fb565b92915050565b6000819050919050565b61023a81610227565b811461024557600080fd5b50565b60008151905061025781610231565b92915050565b600080600080600060a08688031215610279576102786100f5565b5b6000610287888289016101e6565b955050602061029888828901610212565b94505060406102a988828901610248565b93505060606102ba88828901610248565b92505060806102cb888289016101e6565b915050929550929590935056fea2646970667358221220809bfc85b9a65a7c3f020e2bd413ddfc1211f3cbed51663677fdfcda4bfbf79664736f6c634300080a0033",
  "immutableReferences": {},
  "source": "// SPDX-License-Identifier: MIT\n//pragma solidity 0.8.9;\npragma solidity 0.8.10;\n \nimport \"@openzeppelin/contracts/token/ERC20/ERC20.sol\";\nimport \"@openzeppelin/contracts/token/ERC20/IERC20.sol\";\nimport \"./GetLastPrice.sol\";\n\n\ncontract OBdefiStaking {\n   \n    // Constants\n    uint public constant STAKING_RATE = 6;\n    // define here what the rate refers to. Usually it would be a year = 52 weeks in solidity\n    // but for test purpose it can be easier to use shorter period like one day\n    uint public constant STAKING_PERIODICITY = 1 days;\n       \n    // will store an entry information\n    // - stakedAmount = sum of staked amount less sum of withdrawn amounts\n    // - previousStakedAmountPerSecond = necessary to calculate reward without the need to keep a sub-array per token\n    // - lastTransactionDate: last date to use for calculation\n    struct Token {\n        address tokenAddress;\n        uint stakedAmount;\n        uint previousStakedAmountPerSecond;\n        uint lastTransactionDate;\n    }\n    Token[] public tokens;\n    mapping(address => uint) public tokenMap;\n    \n    //GetLastPrice\n    GetLastPrice private priceLatest = new GetLastPrice();\n    //PriceConsumerV3 private priceConsumerV3 = new PriceConsumerV3();\n    \n    /// @notice calculate staked amount per second\n    /// @param token struct containing the necessary information\n    /// @return an uint\n    function getNewStakedAmountPerSecond (Token memory token) private view returns (uint){\n        return token.previousStakedAmountPerSecond + ((block.timestamp - token.lastTransactionDate) * token.stakedAmount);\n    }\n\n    /// @notice calculate reward based on token parameter\n    /// @param token struct containing the necessary information\n    /// @return an uint\n    function calculateReward (Token memory token) private view returns (uint){\n        return ((getNewStakedAmountPerSecond(token) * STAKING_RATE) / STAKING_PERIODICITY) / 100;\n    }\n    \n    function GetStakingRate () public view returns (uint) {\n        return STAKING_RATE;\n    }\n\n    function GetStakingPeriodicity () public view returns (uint) {\n        return STAKING_PERIODICITY;\n    }\n    \n    function GetStakedTokens () public view returns (Token[] memory) {\n        return tokens;\n    }\n\n    /// @notice Stake an amount of a specific ERC20 token\n    /// @param tokenAddress address of the staked token\n    /// @param amount staked amount\n    function stakeToken (address tokenAddress, uint amount) public {\n        require(amount > 0, \"You cannot stake 0 token\");\n\n        int arrayIndex = int(tokenMap[tokenAddress]) - 1;\n        if (arrayIndex == -1) {\n            tokens.push(Token(tokenAddress, amount, 0, block.timestamp));\n            tokenMap[tokenAddress] = tokens.length;\n        }\n        else {\n            Token storage currentToken = tokens[uint(arrayIndex)];\n            currentToken.previousStakedAmountPerSecond = getNewStakedAmountPerSecond(currentToken);\n            currentToken.stakedAmount += amount;\n            currentToken.lastTransactionDate = block.timestamp;\n        }\n\n        // transfer amount from stakeholder to the contract\n        // stakeholder will have first approved (minimum = amount) the contract to transfer tokens from its address\n        IERC20(tokenAddress).transferFrom(msg.sender, address(this), amount);\n    }\n    \n    /// @notice Withdraw an amount of a specific ERC20 token\n    /// @param tokenAddress address of the staked token\n    /// @param amount amount to be withdrawn\n    function withdrawToken (address tokenAddress, uint amount) public {\n        require(amount > 0, \"You cannot withdraw 0 token\");\n\n        int arrayIndex = int(tokenMap[tokenAddress]) - 1;\n        require(arrayIndex > -1, \"Seems you never staked the given token on this contract\");\n        \n        Token storage currentToken = tokens[uint(arrayIndex)];\n        require(currentToken.stakedAmount >= amount, \"Not enough staked tokens.\");\n        \n        currentToken.previousStakedAmountPerSecond = getNewStakedAmountPerSecond(currentToken);\n        currentToken.lastTransactionDate = block.timestamp;\n        currentToken.stakedAmount -= amount;\n\n        // transfer amount back to stakeholder\n        IERC20(tokenAddress).transfer(msg.sender, amount);\n    }\n    \n    /// @notice indicate the total staked amount of a given token \n    /// @param tokenAddress address of the staked token\n    /// @return an uint\n    function getTokenStakedAmount (address tokenAddress) public view returns (uint) {\n        int arrayIndex = int(tokenMap[tokenAddress]) - 1;\n        if (arrayIndex == -1) {\n            return 0;\n        }\n        else {\n            return tokens[uint(arrayIndex)].stakedAmount;\n        }\n    }\n\n    /// @notice indicate the calculated reward amount for a given token\n    /// @param tokenAddress address of the staked token\n    /// @return an uint\n    function getTokenReward (address tokenAddress) public view returns (uint) {\n        int arrayIndex = int(tokenMap[tokenAddress]) - 1;\n        if (arrayIndex == -1) {\n            return 0;\n        }\n        else {\n            return calculateReward(tokens[uint(arrayIndex)]);\n        }\n    }\n    \n    /// @notice factory to give chainlink data feed address for Rinkeby testnet\n    /// @param sourceTokenSymbol symbol of the token\n    /// @return an address\n    function getDataFeedAddressToETH (string memory sourceTokenSymbol) private pure returns (address) {\n        if(keccak256(bytes(sourceTokenSymbol)) == keccak256(bytes(\"BTC\"))) {\n            return address(0xc751E86208F0F8aF2d5CD0e29716cA7AD98B5eF5);\n        }\n        else if(keccak256(bytes(sourceTokenSymbol)) == keccak256(bytes(\"DAI\"))) {\n            return address(0x74825DbC8BF76CC4e9494d0ecB210f676Efa001D);\n        }\n        else if(keccak256(bytes(sourceTokenSymbol)) == keccak256(bytes(\"USDC\"))) {\n            return address(0xdCA36F27cbC4E38aE16C4E9f99D39b42337F6dcf);\n        }\n        else {\n            return address(0);\n        }\n    }\n    \n    /// @notice return the corresponding Rinkeby chainlink price for a token\n    /// @dev note: for test purpose it also returns 10 for AT1 and 20 for AT2 tokens\n    /// @param tokenAddress address of the staked token\n    /// @return an uint\n    function getTokenPrice (address tokenAddress) public view returns (int) {\n        try ERC20(tokenAddress).symbol() returns (string memory tokenSymbol) {\n            address datafeedAddress = getDataFeedAddressToETH(tokenSymbol);\n            if (datafeedAddress == address(0)) {\n                if (keccak256(bytes(tokenSymbol)) == keccak256(bytes(\"AT1\"))) {\n                    return 10;\n                }\n                else if (keccak256(bytes(tokenSymbol)) == keccak256(bytes(\"AT2\"))) {\n                    return 20;\n                }\n                else {\n                    return 0;\n                }\n            }\n            else {\n\n                //try priceConsumerV3.getLatestPrice(tokenAddress) returns (int price) {\n                try priceLatest.getLatestPrice(tokenAddress) returns (int price) {\n                    return price;\n                } catch {\n                    return 0;\n                }\n            }\n        }\n        catch {\n            return 0;\n        }\n    }\n    \n    /// @notice return the total stake reward price in ETH\n    /// @return an uint\n    function getAllTokensRewardsInETH () public view returns (uint) {\n        uint totalRewardsInETH;\n        for (uint tokenCounter=0; tokenCounter<tokens.length; tokenCounter++) {\n            Token storage currentToken = tokens[tokenCounter];\n            totalRewardsInETH += calculateReward(currentToken) * uint(getTokenPrice(currentToken.tokenAddress));\n        }\n        return totalRewardsInETH;\n    }\n}\n",
  "sourcePath": "/home/ldn21/dapp-staking/contracts/OBdefiStaking.sol",
  "compiler": {
    "name": "solc",
    "version": "0.8.10+commit.fc410830.Emscripten.clang"
  },
  "schemaVersion": "3.4.3",
  "updatedAt": "2021-12-05T02:32:13.690Z",
  "networkType": "ethereum",
  "devdoc": {
    "kind": "dev",
    "methods": {
      "getAllTokensRewardsInETH()": {
        "returns": {
          "_0": "an uint"
        }
      },
      "getTokenPrice(address)": {
        "details": "note: for test purpose it also returns 10 for AT1 and 20 for AT2 tokens",
        "params": {
          "tokenAddress": "address of the staked token"
        },
        "returns": {
          "_0": "an uint"
        }
      },
      "getTokenReward(address)": {
        "params": {
          "tokenAddress": "address of the staked token"
        },
        "returns": {
          "_0": "an uint"
        }
      },
      "getTokenStakedAmount(address)": {
        "params": {
          "tokenAddress": "address of the staked token"
        },
        "returns": {
          "_0": "an uint"
        }
      },
      "stakeToken(address,uint256)": {
        "params": {
          "amount": "staked amount",
          "tokenAddress": "address of the staked token"
        }
      },
      "withdrawToken(address,uint256)": {
        "params": {
          "amount": "amount to be withdrawn",
          "tokenAddress": "address of the staked token"
        }
      }
    },
    "version": 1
  },
  "userdoc": {
    "kind": "user",
    "methods": {
      "getAllTokensRewardsInETH()": {
        "notice": "return the total stake reward price in ETH"
      },
      "getTokenPrice(address)": {
        "notice": "return the corresponding Rinkeby chainlink price for a token"
      },
      "getTokenReward(address)": {
        "notice": "indicate the calculated reward amount for a given token"
      },
      "getTokenStakedAmount(address)": {
        "notice": "indicate the total staked amount of a given token "
      },
      "stakeToken(address,uint256)": {
        "notice": "Stake an amount of a specific ERC20 token"
      },
      "withdrawToken(address,uint256)": {
        "notice": "Withdraw an amount of a specific ERC20 token"
      }
    },
    "version": 1
  }
}